{
  "_format": "hh-sol-artifact-1",
  "contractName": "NftMarketplace",
  "sourceName": "contracts/MarketPlace.sol",
  "abi": [
    {
      "inputs": [
        {
          "internalType": "address",
          "name": "nftAddress",
          "type": "address"
        },
        {
          "internalType": "uint256",
          "name": "tokenId",
          "type": "uint256"
        }
      ],
      "name": "AlreadyListed",
      "type": "error"
    },
    {
      "inputs": [
        {
          "internalType": "address",
          "name": "nftAddress",
          "type": "address"
        },
        {
          "internalType": "uint256",
          "name": "tokenId",
          "type": "uint256"
        }
      ],
      "name": "NotListed",
      "type": "error"
    },
    {
      "inputs": [],
      "name": "NotOwner",
      "type": "error"
    },
    {
      "anonymous": false,
      "inputs": [
        {
          "indexed": true,
          "internalType": "address",
          "name": "buyer",
          "type": "address"
        },
        {
          "indexed": true,
          "internalType": "address",
          "name": "nftAddress",
          "type": "address"
        },
        {
          "indexed": true,
          "internalType": "uint256",
          "name": "tokenId",
          "type": "uint256"
        },
        {
          "indexed": false,
          "internalType": "uint256",
          "name": "price",
          "type": "uint256"
        }
      ],
      "name": "ItemBought",
      "type": "event"
    },
    {
      "anonymous": false,
      "inputs": [
        {
          "indexed": true,
          "internalType": "address",
          "name": "seller",
          "type": "address"
        },
        {
          "indexed": true,
          "internalType": "address",
          "name": "nftAddress",
          "type": "address"
        },
        {
          "indexed": true,
          "internalType": "uint256",
          "name": "tokenId",
          "type": "uint256"
        }
      ],
      "name": "ItemCanceled",
      "type": "event"
    },
    {
      "anonymous": false,
      "inputs": [
        {
          "indexed": true,
          "internalType": "address",
          "name": "seller",
          "type": "address"
        },
        {
          "indexed": true,
          "internalType": "address",
          "name": "nftAddress",
          "type": "address"
        },
        {
          "indexed": true,
          "internalType": "uint256",
          "name": "tokenId",
          "type": "uint256"
        },
        {
          "indexed": false,
          "internalType": "uint256",
          "name": "price",
          "type": "uint256"
        }
      ],
      "name": "ItemListed",
      "type": "event"
    },
    {
      "anonymous": false,
      "inputs": [
        {
          "indexed": false,
          "internalType": "address",
          "name": "owner",
          "type": "address"
        },
        {
          "indexed": false,
          "internalType": "address",
          "name": "user",
          "type": "address"
        },
        {
          "indexed": false,
          "internalType": "address",
          "name": "nftContract",
          "type": "address"
        },
        {
          "indexed": false,
          "internalType": "uint256",
          "name": "tokenId",
          "type": "uint256"
        },
        {
          "indexed": false,
          "internalType": "uint256",
          "name": "amountPerMinute",
          "type": "uint256"
        },
        {
          "indexed": false,
          "internalType": "uint256",
          "name": "expires",
          "type": "uint256"
        }
      ],
      "name": "NFTListed",
      "type": "event"
    },
    {
      "anonymous": false,
      "inputs": [
        {
          "indexed": false,
          "internalType": "address",
          "name": "owner",
          "type": "address"
        },
        {
          "indexed": false,
          "internalType": "address",
          "name": "user",
          "type": "address"
        },
        {
          "indexed": false,
          "internalType": "address",
          "name": "nftContract",
          "type": "address"
        },
        {
          "indexed": false,
          "internalType": "uint256",
          "name": "tokenId",
          "type": "uint256"
        },
        {
          "indexed": false,
          "internalType": "uint64",
          "name": "expires",
          "type": "uint64"
        },
        {
          "indexed": false,
          "internalType": "uint256",
          "name": "DueAmount",
          "type": "uint256"
        }
      ],
      "name": "NFTRented",
      "type": "event"
    },
    {
      "anonymous": false,
      "inputs": [
        {
          "indexed": false,
          "internalType": "address",
          "name": "unlistSender",
          "type": "address"
        },
        {
          "indexed": false,
          "internalType": "address",
          "name": "nftContract",
          "type": "address"
        },
        {
          "indexed": false,
          "internalType": "uint256",
          "name": "tokenId",
          "type": "uint256"
        }
      ],
      "name": "NFTUnlisted",
      "type": "event"
    },
    {
      "anonymous": false,
      "inputs": [
        {
          "indexed": true,
          "internalType": "address",
          "name": "previousOwner",
          "type": "address"
        },
        {
          "indexed": true,
          "internalType": "address",
          "name": "newOwner",
          "type": "address"
        }
      ],
      "name": "OwnershipTransferred",
      "type": "event"
    },
    {
      "inputs": [
        {
          "internalType": "address",
          "name": "nftAddress",
          "type": "address"
        },
        {
          "internalType": "uint256",
          "name": "tokenId",
          "type": "uint256"
        }
      ],
      "name": "cancelListing",
      "outputs": [],
      "stateMutability": "nonpayable",
      "type": "function"
    },
    {
      "inputs": [],
      "name": "itemCount",
      "outputs": [
        {
          "internalType": "uint256",
          "name": "",
          "type": "uint256"
        }
      ],
      "stateMutability": "view",
      "type": "function"
    },
    {
      "inputs": [
        {
          "internalType": "uint256",
          "name": "",
          "type": "uint256"
        }
      ],
      "name": "items",
      "outputs": [
        {
          "internalType": "uint256",
          "name": "itemId",
          "type": "uint256"
        },
        {
          "internalType": "address",
          "name": "nft",
          "type": "address"
        },
        {
          "internalType": "uint256",
          "name": "tokenId",
          "type": "uint256"
        },
        {
          "internalType": "uint256",
          "name": "price",
          "type": "uint256"
        },
        {
          "internalType": "address payable",
          "name": "seller",
          "type": "address"
        },
        {
          "internalType": "bool",
          "name": "sold",
          "type": "bool"
        }
      ],
      "stateMutability": "view",
      "type": "function"
    },
    {
      "inputs": [
        {
          "internalType": "address",
          "name": "nftAddress",
          "type": "address"
        },
        {
          "internalType": "uint256",
          "name": "tokenId",
          "type": "uint256"
        },
        {
          "internalType": "uint256",
          "name": "price",
          "type": "uint256"
        }
      ],
      "name": "listItem",
      "outputs": [],
      "stateMutability": "nonpayable",
      "type": "function"
    },
    {
      "inputs": [],
      "name": "owner",
      "outputs": [
        {
          "internalType": "address",
          "name": "",
          "type": "address"
        }
      ],
      "stateMutability": "view",
      "type": "function"
    },
    {
      "inputs": [
        {
          "internalType": "uint256",
          "name": "_itemId",
          "type": "uint256"
        }
      ],
      "name": "purchaseItem",
      "outputs": [],
      "stateMutability": "payable",
      "type": "function"
    },
    {
      "inputs": [],
      "name": "renounceOwnership",
      "outputs": [],
      "stateMutability": "nonpayable",
      "type": "function"
    },
    {
      "inputs": [
        {
          "internalType": "address",
          "name": "newOwner",
          "type": "address"
        }
      ],
      "name": "transferOwnership",
      "outputs": [],
      "stateMutability": "nonpayable",
      "type": "function"
    }
  ],
  "bytecode": "0x608060405234801561001057600080fd5b50600160005561001f33610024565b610076565b600180546001600160a01b038381166001600160a01b0319831681179093556040519116919082907f8be0079c531659141344cd1fd0a4f28419497f9722a3daafe3b4186f6b6457e090600090a35050565b610e51806100856000396000f3fe60806040526004361061007b5760003560e01c8063b2ddee061161004e578063b2ddee0614610108578063bfb231d214610128578063d38ea5bf146101c7578063f2fde38b146101da57600080fd5b80636bfb0d0114610080578063715018a6146100a957806389bfd38f146100c05780638da5cb5b146100e0575b600080fd5b34801561008c57600080fd5b5061009660045481565b6040519081526020015b60405180910390f35b3480156100b557600080fd5b506100be6101fa565b005b3480156100cc57600080fd5b506100be6100db366004610d37565b61020e565b3480156100ec57600080fd5b506001546040516001600160a01b0390911681526020016100a0565b34801561011457600080fd5b506100be610123366004610d6c565b61075c565b34801561013457600080fd5b5061018b610143366004610d98565b6008602052600090815260409020805460018201546002830154600384015460049094015492936001600160a01b03928316939192909190811690600160a01b900460ff1686565b604080519687526001600160a01b03958616602088015286019390935260608501919091529091166080830152151560a082015260c0016100a0565b6100be6101d5366004610d98565b61096d565b3480156101e657600080fd5b506100be6101f5366004610db1565b610ba6565b610202610c1c565b61020c6000610c76565b565b6001600160a01b0383811660009081526005602090815260408083208684528252918290208251606081018452815480825260019092015494851692810192909252600160a01b90930460ff161515918101919091528491849133911561029f57604051634a5568d560e01b81526001600160a01b0385166004820152602481018490526044015b60405180910390fd5b600480549060006102af83610dd5565b9190505550600085116103045760405162461bcd60e51b815260206004820152601860248201527f5072696365204d7573742042652041626f7665205a65726f00000000000000006044820152606401610296565b60405163020604bf60e21b815260048101879052879030906001600160a01b0383169063081812fc9060240160206040518083038186803b15801561034857600080fd5b505afa15801561035c573d6000803e3d6000fd5b505050506040513d601f19601f820116820180604052508101906103809190610dfe565b6001600160a01b031614156103d75760405162461bcd60e51b815260206004820152601d60248201527f4e6f7420417070726f76656420466f72204d61726b657420506c6163650000006044820152606401610296565b6040516323b872dd60e01b8152336004820152306024820152604481018890526001600160a01b038916906323b872dd90606401600060405180830381600087803b15801561042557600080fd5b505af1158015610439573d6000803e3d6000fd5b505050506040518060600160405280878152602001336001600160a01b0316815260200160011515815250600560008a6001600160a01b03166001600160a01b0316815260200190815260200160002060008981526020019081526020016000206000820151816000015560208201518160010160006101000a8154816001600160a01b0302191690836001600160a01b0316021790555060408201518160010160146101000a81548160ff02191690831515021790555090505086886001600160a01b0316336001600160a01b03167fd547e933094f12a9159076970143ebe73234e64480317844b0dcb36117116de48960405161053a91815260200190565b60405180910390a46040518060c00160405280896001600160a01b03168152602001888152602001336001600160a01b03168152602001306001600160a01b03168152602001878152602001600115158152506007600089815260200190815260200160002060008201518160000160006101000a8154816001600160a01b0302191690836001600160a01b031602179055506020820151816001015560408201518160020160006101000a8154816001600160a01b0302191690836001600160a01b0316021790555060608201518160030160006101000a8154816001600160a01b0302191690836001600160a01b031602179055506080820151816004015560a08201518160050160006101000a81548160ff0219169083151502179055509050506040518060c001604052806004548152602001896001600160a01b03168152602001888152602001878152602001336001600160a01b03168152602001600015158152506008600060045481526020019081526020016000206000820151816000015560208201518160010160006101000a8154816001600160a01b0302191690836001600160a01b03160217905550604082015181600201556060820151816003015560808201518160040160006101000a8154816001600160a01b0302191690836001600160a01b0316021790555060a08201518160040160146101000a81548160ff0219169083151502179055509050505050505050505050565b6040516331a9108f60e11b81526004810182905282908290339083906000906001600160a01b03831690636352211e9060240160206040518083038186803b1580156107a757600080fd5b505afa1580156107bb573d6000803e3d6000fd5b505050506040513d601f19601f820116820180604052508101906107df9190610dfe565b9050806001600160a01b0316836001600160a01b031614610813576040516330cd747160e01b815260040160405180910390fd5b6001600160a01b0387811660009081526005602090815260408083208a84528252918290208251606081018452815480825260019092015494851692810192909252600160a01b90930460ff16151591810191909152889188919061089d57604051631a0c522360e21b81526001600160a01b038416600482015260248101839052604401610296565b6001600160a01b038a1660008181526005602090815260408083208d845290915290819020600101805460ff60a01b19169055516323b872dd60e01b8152306004820152336024820152604481018b90526323b872dd90606401600060405180830381600087803b15801561091157600080fd5b505af1158015610925573d6000803e3d6000fd5b50506040518b92506001600160a01b038d16915033907f9ba1a3cb55ce8d63d072a886f94d2a744f50cddf82128e897d0661f5ec62315890600090a450505050505050505050565b610975610cc8565b6000818152600860205260409020811580159061099457506004548211155b6109d55760405162461bcd60e51b81526020600482015260126024820152711a5d195b48191bd95cdb89dd08195e1a5cdd60721b6044820152606401610296565b6004810154600160a01b900460ff1615610a255760405162461bcd60e51b81526020600482015260116024820152701a5d195b48185b1c9958591e481cdbdb19607a1b6044820152606401610296565b60048101546001600160a01b0316331415610a825760405162461bcd60e51b815260206004820152601f60248201527f4f776e6572206f66204e46542043616e7420427579205468656972204e6674006044820152606401610296565b600481015460038201546040516001600160a01b039092169181156108fc0291906000818181858888f19350505050158015610ac2573d6000803e3d6000fd5b506004818101805460ff60a01b1916600160a01b179055600182015460028301546040516323b872dd60e01b8152309381019390935233602484015260448301526001600160a01b0316906323b872dd90606401600060405180830381600087803b158015610b3057600080fd5b505af1158015610b44573d6000803e3d6000fd5b505050506002810154600182015460038301546040519081526001600160a01b039091169033907f263223b1dd81e51054a4e6f791d45a4a1ddb4aadcd93a2dfd892615c3fdac1879060200160405180910390a450610ba36001600055565b50565b610bae610c1c565b6001600160a01b038116610c135760405162461bcd60e51b815260206004820152602660248201527f4f776e61626c653a206e6577206f776e657220697320746865207a65726f206160448201526564647265737360d01b6064820152608401610296565b610ba381610c76565b6001546001600160a01b0316331461020c5760405162461bcd60e51b815260206004820181905260248201527f4f776e61626c653a2063616c6c6572206973206e6f7420746865206f776e65726044820152606401610296565b600180546001600160a01b038381166001600160a01b0319831681179093556040519116919082907f8be0079c531659141344cd1fd0a4f28419497f9722a3daafe3b4186f6b6457e090600090a35050565b60026000541415610d1b5760405162461bcd60e51b815260206004820152601f60248201527f5265656e7472616e637947756172643a207265656e7472616e742063616c6c006044820152606401610296565b6002600055565b6001600160a01b0381168114610ba357600080fd5b600080600060608486031215610d4c57600080fd5b8335610d5781610d22565b95602085013595506040909401359392505050565b60008060408385031215610d7f57600080fd5b8235610d8a81610d22565b946020939093013593505050565b600060208284031215610daa57600080fd5b5035919050565b600060208284031215610dc357600080fd5b8135610dce81610d22565b9392505050565b6000600019821415610df757634e487b7160e01b600052601160045260246000fd5b5060010190565b600060208284031215610e1057600080fd5b8151610dce81610d2256fea26469706673582212202370b426de72139b35608db905b32d66a97be82af4faec0de0fef550531961f964736f6c63430008090033",
  "linkReferences": {},
  "deployedLinkReferences": {}
}