{
  "_format": "hh-sol-artifact-1",
  "contractName": "Token",
  "sourceName": "contracts/MyToken.sol",
  "abi": [
    {
      "inputs": [
        {
          "internalType": "string",
          "name": "_name",
          "type": "string"
        },
        {
          "internalType": "string",
          "name": "_symbol",
          "type": "string"
        },
        {
          "internalType": "uint256",
          "name": "_initialSupply",
          "type": "uint256"
        }
      ],
      "stateMutability": "nonpayable",
      "type": "constructor"
    },
    {
      "anonymous": false,
      "inputs": [
        {
          "indexed": true,
          "internalType": "address",
          "name": "owner",
          "type": "address"
        },
        {
          "indexed": true,
          "internalType": "address",
          "name": "spender",
          "type": "address"
        },
        {
          "indexed": false,
          "internalType": "uint256",
          "name": "value",
          "type": "uint256"
        }
      ],
      "name": "Approval",
      "type": "event"
    },
    {
      "anonymous": false,
      "inputs": [
        {
          "indexed": true,
          "internalType": "address",
          "name": "delegator",
          "type": "address"
        },
        {
          "indexed": true,
          "internalType": "address",
          "name": "fromDelegate",
          "type": "address"
        },
        {
          "indexed": true,
          "internalType": "address",
          "name": "toDelegate",
          "type": "address"
        }
      ],
      "name": "DelegateChanged",
      "type": "event"
    },
    {
      "anonymous": false,
      "inputs": [
        {
          "indexed": true,
          "internalType": "address",
          "name": "delegate",
          "type": "address"
        },
        {
          "indexed": false,
          "internalType": "uint256",
          "name": "previousBalance",
          "type": "uint256"
        },
        {
          "indexed": false,
          "internalType": "uint256",
          "name": "newBalance",
          "type": "uint256"
        }
      ],
      "name": "DelegateVotesChanged",
      "type": "event"
    },
    {
      "anonymous": false,
      "inputs": [
        {
          "indexed": true,
          "internalType": "address",
          "name": "from",
          "type": "address"
        },
        {
          "indexed": true,
          "internalType": "address",
          "name": "to",
          "type": "address"
        },
        {
          "indexed": false,
          "internalType": "uint256",
          "name": "value",
          "type": "uint256"
        }
      ],
      "name": "Transfer",
      "type": "event"
    },
    {
      "inputs": [],
      "name": "DOMAIN_SEPARATOR",
      "outputs": [
        {
          "internalType": "bytes32",
          "name": "",
          "type": "bytes32"
        }
      ],
      "stateMutability": "view",
      "type": "function"
    },
    {
      "inputs": [
        {
          "internalType": "address",
          "name": "owner",
          "type": "address"
        },
        {
          "internalType": "address",
          "name": "spender",
          "type": "address"
        }
      ],
      "name": "allowance",
      "outputs": [
        {
          "internalType": "uint256",
          "name": "",
          "type": "uint256"
        }
      ],
      "stateMutability": "view",
      "type": "function"
    },
    {
      "inputs": [
        {
          "internalType": "address",
          "name": "spender",
          "type": "address"
        },
        {
          "internalType": "uint256",
          "name": "amount",
          "type": "uint256"
        }
      ],
      "name": "approve",
      "outputs": [
        {
          "internalType": "bool",
          "name": "",
          "type": "bool"
        }
      ],
      "stateMutability": "nonpayable",
      "type": "function"
    },
    {
      "inputs": [
        {
          "internalType": "address",
          "name": "account",
          "type": "address"
        }
      ],
      "name": "balanceOf",
      "outputs": [
        {
          "internalType": "uint256",
          "name": "",
          "type": "uint256"
        }
      ],
      "stateMutability": "view",
      "type": "function"
    },
    {
      "inputs": [
        {
          "internalType": "address",
          "name": "account",
          "type": "address"
        },
        {
          "internalType": "uint32",
          "name": "pos",
          "type": "uint32"
        }
      ],
      "name": "checkpoints",
      "outputs": [
        {
          "components": [
            {
              "internalType": "uint32",
              "name": "fromBlock",
              "type": "uint32"
            },
            {
              "internalType": "uint224",
              "name": "votes",
              "type": "uint224"
            }
          ],
          "internalType": "struct ERC20Votes.Checkpoint",
          "name": "",
          "type": "tuple"
        }
      ],
      "stateMutability": "view",
      "type": "function"
    },
    {
      "inputs": [],
      "name": "decimals",
      "outputs": [
        {
          "internalType": "uint8",
          "name": "",
          "type": "uint8"
        }
      ],
      "stateMutability": "view",
      "type": "function"
    },
    {
      "inputs": [
        {
          "internalType": "address",
          "name": "spender",
          "type": "address"
        },
        {
          "internalType": "uint256",
          "name": "subtractedValue",
          "type": "uint256"
        }
      ],
      "name": "decreaseAllowance",
      "outputs": [
        {
          "internalType": "bool",
          "name": "",
          "type": "bool"
        }
      ],
      "stateMutability": "nonpayable",
      "type": "function"
    },
    {
      "inputs": [
        {
          "internalType": "address",
          "name": "delegatee",
          "type": "address"
        }
      ],
      "name": "delegate",
      "outputs": [],
      "stateMutability": "nonpayable",
      "type": "function"
    },
    {
      "inputs": [
        {
          "internalType": "address",
          "name": "delegatee",
          "type": "address"
        },
        {
          "internalType": "uint256",
          "name": "nonce",
          "type": "uint256"
        },
        {
          "internalType": "uint256",
          "name": "expiry",
          "type": "uint256"
        },
        {
          "internalType": "uint8",
          "name": "v",
          "type": "uint8"
        },
        {
          "internalType": "bytes32",
          "name": "r",
          "type": "bytes32"
        },
        {
          "internalType": "bytes32",
          "name": "s",
          "type": "bytes32"
        }
      ],
      "name": "delegateBySig",
      "outputs": [],
      "stateMutability": "nonpayable",
      "type": "function"
    },
    {
      "inputs": [
        {
          "internalType": "address",
          "name": "account",
          "type": "address"
        }
      ],
      "name": "delegates",
      "outputs": [
        {
          "internalType": "address",
          "name": "",
          "type": "address"
        }
      ],
      "stateMutability": "view",
      "type": "function"
    },
    {
      "inputs": [
        {
          "internalType": "uint256",
          "name": "blockNumber",
          "type": "uint256"
        }
      ],
      "name": "getPastTotalSupply",
      "outputs": [
        {
          "internalType": "uint256",
          "name": "",
          "type": "uint256"
        }
      ],
      "stateMutability": "view",
      "type": "function"
    },
    {
      "inputs": [
        {
          "internalType": "address",
          "name": "account",
          "type": "address"
        },
        {
          "internalType": "uint256",
          "name": "blockNumber",
          "type": "uint256"
        }
      ],
      "name": "getPastVotes",
      "outputs": [
        {
          "internalType": "uint256",
          "name": "",
          "type": "uint256"
        }
      ],
      "stateMutability": "view",
      "type": "function"
    },
    {
      "inputs": [
        {
          "internalType": "address",
          "name": "account",
          "type": "address"
        }
      ],
      "name": "getVotes",
      "outputs": [
        {
          "internalType": "uint256",
          "name": "",
          "type": "uint256"
        }
      ],
      "stateMutability": "view",
      "type": "function"
    },
    {
      "inputs": [
        {
          "internalType": "address",
          "name": "spender",
          "type": "address"
        },
        {
          "internalType": "uint256",
          "name": "addedValue",
          "type": "uint256"
        }
      ],
      "name": "increaseAllowance",
      "outputs": [
        {
          "internalType": "bool",
          "name": "",
          "type": "bool"
        }
      ],
      "stateMutability": "nonpayable",
      "type": "function"
    },
    {
      "inputs": [],
      "name": "name",
      "outputs": [
        {
          "internalType": "string",
          "name": "",
          "type": "string"
        }
      ],
      "stateMutability": "view",
      "type": "function"
    },
    {
      "inputs": [
        {
          "internalType": "address",
          "name": "owner",
          "type": "address"
        }
      ],
      "name": "nonces",
      "outputs": [
        {
          "internalType": "uint256",
          "name": "",
          "type": "uint256"
        }
      ],
      "stateMutability": "view",
      "type": "function"
    },
    {
      "inputs": [
        {
          "internalType": "address",
          "name": "account",
          "type": "address"
        }
      ],
      "name": "numCheckpoints",
      "outputs": [
        {
          "internalType": "uint32",
          "name": "",
          "type": "uint32"
        }
      ],
      "stateMutability": "view",
      "type": "function"
    },
    {
      "inputs": [
        {
          "internalType": "address",
          "name": "owner",
          "type": "address"
        },
        {
          "internalType": "address",
          "name": "spender",
          "type": "address"
        },
        {
          "internalType": "uint256",
          "name": "value",
          "type": "uint256"
        },
        {
          "internalType": "uint256",
          "name": "deadline",
          "type": "uint256"
        },
        {
          "internalType": "uint8",
          "name": "v",
          "type": "uint8"
        },
        {
          "internalType": "bytes32",
          "name": "r",
          "type": "bytes32"
        },
        {
          "internalType": "bytes32",
          "name": "s",
          "type": "bytes32"
        }
      ],
      "name": "permit",
      "outputs": [],
      "stateMutability": "nonpayable",
      "type": "function"
    },
    {
      "inputs": [],
      "name": "symbol",
      "outputs": [
        {
          "internalType": "string",
          "name": "",
          "type": "string"
        }
      ],
      "stateMutability": "view",
      "type": "function"
    },
    {
      "inputs": [],
      "name": "totalSupply",
      "outputs": [
        {
          "internalType": "uint256",
          "name": "",
          "type": "uint256"
        }
      ],
      "stateMutability": "view",
      "type": "function"
    },
    {
      "inputs": [
        {
          "internalType": "address",
          "name": "to",
          "type": "address"
        },
        {
          "internalType": "uint256",
          "name": "amount",
          "type": "uint256"
        }
      ],
      "name": "transfer",
      "outputs": [
        {
          "internalType": "bool",
          "name": "",
          "type": "bool"
        }
      ],
      "stateMutability": "nonpayable",
      "type": "function"
    },
    {
      "inputs": [
        {
          "internalType": "address",
          "name": "from",
          "type": "address"
        },
        {
          "internalType": "address",
          "name": "to",
          "type": "address"
        },
        {
          "internalType": "uint256",
          "name": "amount",
          "type": "uint256"
        }
      ],
      "name": "transferFrom",
      "outputs": [
        {
          "internalType": "bool",
          "name": "",
          "type": "bool"
        }
      ],
      "stateMutability": "nonpayable",
      "type": "function"
    }
  ],
  "bytecode": "0x6101406040523480156200001257600080fd5b50604051620026703803806200267083398101604081905262000035916200084f565b8280604051806040016040528060018152602001603160f81b815250858581600390805190602001906200006b929190620006e6565b50805162000081906004906020840190620006e6565b5050825160209384012082519284019290922060e08390526101008190524660a0818152604080517f8b73c3c69bb8fe3d512ecc4cf759cc79239f7b179b0ffacaa9a75d522b39400f818901819052818301979097526060810194909452608080850193909352308483018190528151808603909301835260c094850190915281519190960120905292909252610120525062000121905033826200012a565b5050506200094a565b6200014182826200014560201b62000a061760201c565b5050565b6200015c8282620001fc60201b62000a961760201c565b6001600160e01b0362000170620002c98216565b1115620001dd5760405162461bcd60e51b815260206004820152603060248201527f4552433230566f7465733a20746f74616c20737570706c79207269736b73206f60448201526f766572666c6f77696e6720766f74657360801b60648201526084015b60405180910390fd5b620001f6600962000b61620002cf60201b1783620002e4565b50505050565b6001600160a01b038216620002545760405162461bcd60e51b815260206004820152601f60248201527f45524332303a206d696e7420746f20746865207a65726f2061646472657373006044820152606401620001d4565b8060026000828254620002689190620008d8565b90915550506001600160a01b038216600081815260208181526040808320805486019055518481527fddf252ad1be2c89b69c2b068fc378daa952ba7f163c4a11628f55a4df523b3ef910160405180910390a362000141600083836200047b565b60025490565b6000620002dd8284620008d8565b9392505050565b825460009081908181156200034457620003138762000305600185620008f3565b600091825260209091200190565b60408051808201909152905463ffffffff8116825264010000000090046001600160e01b0316602082015262000359565b60408051808201909152600080825260208201525b905080602001516001600160e01b031693506200037784868860201c565b9250600082118015620003905750805163ffffffff1643145b15620003e757620003ac836200049360201b62000b6d1760201c565b620003be8862000305600186620008f3565b80546001600160e01b03929092166401000000000263ffffffff9092169190911790556200046c565b86604051806040016040528062000409436200050260201b62000bda1760201c565b63ffffffff1681526020016200042a866200049360201b62000b6d1760201c565b6001600160e01b0390811690915282546001810184556000938452602093849020835194909301519091166401000000000263ffffffff909316929092179101555b5050935093915050565b505050565b620004768383836200056960201b62000c3f1760201c565b60006001600160e01b03821115620004fe5760405162461bcd60e51b815260206004820152602760248201527f53616665436173743a2076616c756520646f65736e27742066697420696e20326044820152663234206269747360c81b6064820152608401620001d4565b5090565b600063ffffffff821115620004fe5760405162461bcd60e51b815260206004820152602660248201527f53616665436173743a2076616c756520646f65736e27742066697420696e203360448201526532206269747360d01b6064820152608401620001d4565b620005818383836200047660201b62000c711760201c565b6001600160a01b038381166000908152600760205260408082205485841683529120546200047692918216911683818314801590620005c05750600081115b1562000476576001600160a01b038316156200064d576001600160a01b0383166000908152600860209081526040822082916200060a9190620006d8901b62000c761785620002e4565b91509150846001600160a01b031660008051602062002650833981519152838360405162000642929190918252602082015260400190565b60405180910390a250505b6001600160a01b0382161562000476576001600160a01b038216600090815260086020908152604082208291620006919190620002cf901b62000b611785620002e4565b91509150836001600160a01b0316600080516020620026508339815191528383604051620006c9929190918252602082015260400190565b60405180910390a25050505050565b6000620002dd8284620008f3565b828054620006f4906200090d565b90600052602060002090601f01602090048101928262000718576000855562000763565b82601f106200073357805160ff191683800117855562000763565b8280016001018555821562000763579182015b828111156200076357825182559160200191906001019062000746565b50620004fe9291505b80821115620004fe57600081556001016200076c565b634e487b7160e01b600052604160045260246000fd5b600082601f830112620007aa57600080fd5b81516001600160401b0380821115620007c757620007c762000782565b604051601f8301601f19908116603f01168101908282118183101715620007f257620007f262000782565b816040528381526020925086838588010111156200080f57600080fd5b600091505b8382101562000833578582018301518183018401529082019062000814565b83821115620008455760008385830101525b9695505050505050565b6000806000606084860312156200086557600080fd5b83516001600160401b03808211156200087d57600080fd5b6200088b8783880162000798565b94506020860151915080821115620008a257600080fd5b50620008b18682870162000798565b925050604084015190509250925092565b634e487b7160e01b600052601160045260246000fd5b60008219821115620008ee57620008ee620008c2565b500190565b600082821015620009085762000908620008c2565b500390565b600181811c908216806200092257607f821691505b602082108114156200094457634e487b7160e01b600052602260045260246000fd5b50919050565b60805160a05160c05160e0516101005161012051611cb66200099a600039600061104e0152600061109d0152600061107801526000610fd101526000610ffb015260006110250152611cb66000f3fe608060405234801561001057600080fd5b50600436106101425760003560e01c806370a08231116100b8578063a457c2d71161007c578063a457c2d7146102d5578063a9059cbb146102e8578063c3cda520146102fb578063d505accf1461030e578063dd62ed3e14610321578063f1127ed81461033457600080fd5b806370a082311461026b5780637ecebe00146102945780638e539e8c146102a757806395d89b41146102ba5780639ab24eb0146102c257600080fd5b80633644e5151161010a5780633644e515146101bc57806339509351146101c45780633a46b1a8146101d7578063587cde1e146101ea5780635c19a95c1461022e5780636fcfff451461024357600080fd5b806306fdde0314610147578063095ea7b31461016557806318160ddd1461018857806323b872dd1461019a578063313ce567146101ad575b600080fd5b61014f610371565b60405161015c9190611951565b60405180910390f35b6101786101733660046119c2565b610403565b604051901515815260200161015c565b6002545b60405190815260200161015c565b6101786101a83660046119ec565b61041b565b6040516012815260200161015c565b61018c61043f565b6101786101d23660046119c2565b61044e565b61018c6101e53660046119c2565b610470565b6102166101f8366004611a28565b6001600160a01b039081166000908152600760205260409020541690565b6040516001600160a01b03909116815260200161015c565b61024161023c366004611a28565b6104ef565b005b610256610251366004611a28565b6104fc565b60405163ffffffff909116815260200161015c565b61018c610279366004611a28565b6001600160a01b031660009081526020819052604090205490565b61018c6102a2366004611a28565b610524565b61018c6102b5366004611a43565b610542565b61014f61059e565b61018c6102d0366004611a28565b6105ad565b6101786102e33660046119c2565b610634565b6101786102f63660046119c2565b6106af565b610241610309366004611a6d565b6106bd565b61024161031c366004611ac5565b6107f3565b61018c61032f366004611b2f565b610957565b610347610342366004611b62565b610982565b60408051825163ffffffff1681526020928301516001600160e01b0316928101929092520161015c565b60606003805461038090611ba2565b80601f01602080910402602001604051908101604052809291908181526020018280546103ac90611ba2565b80156103f95780601f106103ce576101008083540402835291602001916103f9565b820191906000526020600020905b8154815290600101906020018083116103dc57829003601f168201915b5050505050905090565b600033610411818585610c82565b5060019392505050565b600033610429858285610da6565b610434858585610e1a565b506001949350505050565b6000610449610fc4565b905090565b6000336104118185856104618383610957565b61046b9190611bed565b610c82565b60004382106104c65760405162461bcd60e51b815260206004820152601f60248201527f4552433230566f7465733a20626c6f636b206e6f7420796574206d696e65640060448201526064015b60405180910390fd5b6001600160a01b03831660009081526008602052604090206104e890836110eb565b9392505050565b6104f933826111e2565b50565b6001600160a01b03811660009081526008602052604081205461051e90610bda565b92915050565b6001600160a01b03811660009081526005602052604081205461051e565b60004382106105935760405162461bcd60e51b815260206004820152601f60248201527f4552433230566f7465733a20626c6f636b206e6f7420796574206d696e65640060448201526064016104bd565b61051e6009836110eb565b60606004805461038090611ba2565b6001600160a01b0381166000908152600860205260408120548015610621576001600160a01b03831660009081526008602052604090206105ef600183611c05565b815481106105ff576105ff611c1c565b60009182526020909120015464010000000090046001600160e01b0316610624565b60005b6001600160e01b03169392505050565b600033816106428286610957565b9050838110156106a25760405162461bcd60e51b815260206004820152602560248201527f45524332303a2064656372656173656420616c6c6f77616e63652062656c6f77604482015264207a65726f60d81b60648201526084016104bd565b6104348286868403610c82565b600033610411818585610e1a565b8342111561070d5760405162461bcd60e51b815260206004820152601d60248201527f4552433230566f7465733a207369676e6174757265206578706972656400000060448201526064016104bd565b604080517fe48329057bfd03d55e49b547132e39cffd9c1820ad7b9d4c5307691425d15adf60208201526001600160a01b0388169181019190915260608101869052608081018590526000906107879061077f9060a0016040516020818303038152906040528051906020012061125b565b8585856112a9565b9050610792816112d1565b86146107e05760405162461bcd60e51b815260206004820152601960248201527f4552433230566f7465733a20696e76616c6964206e6f6e63650000000000000060448201526064016104bd565b6107ea81886111e2565b50505050505050565b834211156108435760405162461bcd60e51b815260206004820152601d60248201527f45524332305065726d69743a206578706972656420646561646c696e6500000060448201526064016104bd565b60007f6e71edae12b1b97f4d1f60370fef10105fa2faae0126114a169c64845d6126c98888886108728c6112d1565b6040805160208101969096526001600160a01b0394851690860152929091166060840152608083015260a082015260c0810186905260e00160405160208183030381529060405280519060200120905060006108cd8261125b565b905060006108dd828787876112a9565b9050896001600160a01b0316816001600160a01b0316146109405760405162461bcd60e51b815260206004820152601e60248201527f45524332305065726d69743a20696e76616c6964207369676e6174757265000060448201526064016104bd565b61094b8a8a8a610c82565b50505050505050505050565b6001600160a01b03918216600090815260016020908152604080832093909416825291909152205490565b60408051808201909152600080825260208201526001600160a01b0383166000908152600860205260409020805463ffffffff84169081106109c6576109c6611c1c565b60009182526020918290206040805180820190915291015463ffffffff8116825264010000000090046001600160e01b0316918101919091529392505050565b610a108282610a96565b6002546001600160e01b031015610a825760405162461bcd60e51b815260206004820152603060248201527f4552433230566f7465733a20746f74616c20737570706c79207269736b73206f60448201526f766572666c6f77696e6720766f74657360801b60648201526084016104bd565b610a906009610b61836112f9565b50505050565b6001600160a01b038216610aec5760405162461bcd60e51b815260206004820152601f60248201527f45524332303a206d696e7420746f20746865207a65726f20616464726573730060448201526064016104bd565b8060026000828254610afe9190611bed565b90915550506001600160a01b038216600081815260208181526040808320805486019055518481527fddf252ad1be2c89b69c2b068fc378daa952ba7f163c4a11628f55a4df523b3ef910160405180910390a3610b5d6000838361144d565b5050565b60006104e88284611bed565b60006001600160e01b03821115610bd65760405162461bcd60e51b815260206004820152602760248201527f53616665436173743a2076616c756520646f65736e27742066697420696e20326044820152663234206269747360c81b60648201526084016104bd565b5090565b600063ffffffff821115610bd65760405162461bcd60e51b815260206004820152602660248201527f53616665436173743a2076616c756520646f65736e27742066697420696e203360448201526532206269747360d01b60648201526084016104bd565b6001600160a01b03838116600090815260076020526040808220548584168352912054610c7192918216911683611458565b505050565b60006104e88284611c05565b6001600160a01b038316610ce45760405162461bcd60e51b8152602060048201526024808201527f45524332303a20617070726f76652066726f6d20746865207a65726f206164646044820152637265737360e01b60648201526084016104bd565b6001600160a01b038216610d455760405162461bcd60e51b815260206004820152602260248201527f45524332303a20617070726f766520746f20746865207a65726f206164647265604482015261737360f01b60648201526084016104bd565b6001600160a01b0383811660008181526001602090815260408083209487168084529482529182902085905590518481527f8c5be1e5ebec7d5bd14f71427d1e84f3dd0314c0f7b2291e5b200ac8c7c3b925910160405180910390a3505050565b6000610db28484610957565b90506000198114610a905781811015610e0d5760405162461bcd60e51b815260206004820152601d60248201527f45524332303a20696e73756666696369656e7420616c6c6f77616e636500000060448201526064016104bd565b610a908484848403610c82565b6001600160a01b038316610e7e5760405162461bcd60e51b815260206004820152602560248201527f45524332303a207472616e736665722066726f6d20746865207a65726f206164604482015264647265737360d81b60648201526084016104bd565b6001600160a01b038216610ee05760405162461bcd60e51b815260206004820152602360248201527f45524332303a207472616e7366657220746f20746865207a65726f206164647260448201526265737360e81b60648201526084016104bd565b6001600160a01b03831660009081526020819052604090205481811015610f585760405162461bcd60e51b815260206004820152602660248201527f45524332303a207472616e7366657220616d6f756e7420657863656564732062604482015265616c616e636560d01b60648201526084016104bd565b6001600160a01b03848116600081815260208181526040808320878703905593871680835291849020805487019055925185815290927fddf252ad1be2c89b69c2b068fc378daa952ba7f163c4a11628f55a4df523b3ef910160405180910390a3610a9084848461144d565b6000306001600160a01b037f00000000000000000000000000000000000000000000000000000000000000001614801561101d57507f000000000000000000000000000000000000000000000000000000000000000046145b1561104757507f000000000000000000000000000000000000000000000000000000000000000090565b50604080517f00000000000000000000000000000000000000000000000000000000000000006020808301919091527f0000000000000000000000000000000000000000000000000000000000000000828401527f000000000000000000000000000000000000000000000000000000000000000060608301524660808301523060a0808401919091528351808403909101815260c0909201909252805191012090565b81546000908181600581111561114557600061110684611595565b6111109085611c05565b600088815260209020909150869082015463ffffffff16111561113557809150611143565b611140816001611bed565b92505b505b80821015611192576000611159838361167a565b600088815260209020909150869082015463ffffffff16111561117e5780915061118c565b611189816001611bed565b92505b50611145565b80156111cc576111b5866111a7600184611c05565b600091825260209091200190565b5464010000000090046001600160e01b03166111cf565b60005b6001600160e01b03169695505050505050565b6001600160a01b038281166000818152600760208181526040808420805485845282862054949093528787166001600160a01b03198416811790915590519190951694919391928592917f3134e8a2e6d97e929a7e54011ea5485d7d196dd5f0ba4d4ef95803e8e3fc257f9190a4610a90828483611458565b600061051e611268610fc4565b8360405161190160f01b6020820152602281018390526042810182905260009060620160405160208183030381529060405280519060200120905092915050565b60008060006112ba87878787611695565b915091506112c781611759565b5095945050505050565b6001600160a01b03811660009081526005602052604090208054600181018255905b50919050565b8254600090819081811561134657611316876111a7600185611c05565b60408051808201909152905463ffffffff8116825264010000000090046001600160e01b0316602082015261135b565b60408051808201909152600080825260208201525b905080602001516001600160e01b0316935061137b84868863ffffffff16565b92506000821180156113935750805163ffffffff1643145b156113d8576113a183610b6d565b6113b0886111a7600186611c05565b80546001600160e01b03929092166401000000000263ffffffff909216919091179055611443565b8660405180604001604052806113ed43610bda565b63ffffffff16815260200161140186610b6d565b6001600160e01b0390811690915282546001810184556000938452602093849020835194909301519091166401000000000263ffffffff909316929092179101555b5050935093915050565b610c71838383610c3f565b816001600160a01b0316836001600160a01b03161415801561147a5750600081115b15610c71576001600160a01b03831615611508576001600160a01b038316600090815260086020526040812081906114b590610c76856112f9565b91509150846001600160a01b03167fdec2bacdd2f05b59de34da9b523dff8be42e5e38e818c82fdb0bae774387a72483836040516114fd929190918252602082015260400190565b60405180910390a250505b6001600160a01b03821615610c71576001600160a01b0382166000908152600860205260408120819061153e90610b61856112f9565b91509150836001600160a01b03167fdec2bacdd2f05b59de34da9b523dff8be42e5e38e818c82fdb0bae774387a7248383604051611586929190918252602082015260400190565b60405180910390a25050505050565b6000816115a457506000919050565b600060016115b1846118a7565b901c6001901b905060018184816115ca576115ca611c32565b048201901c905060018184816115e2576115e2611c32565b048201901c905060018184816115fa576115fa611c32565b048201901c9050600181848161161257611612611c32565b048201901c9050600181848161162a5761162a611c32565b048201901c9050600181848161164257611642611c32565b048201901c9050600181848161165a5761165a611c32565b048201901c90506104e88182858161167457611674611c32565b0461193b565b60006116896002848418611c48565b6104e890848416611bed565b6000807f7fffffffffffffffffffffffffffffff5d576e7357a4501ddfe92f46681b20a08311156116cc5750600090506003611750565b6040805160008082526020820180845289905260ff881692820192909252606081018690526080810185905260019060a0016020604051602081039080840390855afa158015611720573d6000803e3d6000fd5b5050604051601f1901519150506001600160a01b03811661174957600060019250925050611750565b9150600090505b94509492505050565b600081600481111561176d5761176d611c6a565b14156117765750565b600181600481111561178a5761178a611c6a565b14156117d85760405162461bcd60e51b815260206004820152601860248201527f45434453413a20696e76616c6964207369676e6174757265000000000000000060448201526064016104bd565b60028160048111156117ec576117ec611c6a565b141561183a5760405162461bcd60e51b815260206004820152601f60248201527f45434453413a20696e76616c6964207369676e6174757265206c656e6774680060448201526064016104bd565b600381600481111561184e5761184e611c6a565b14156104f95760405162461bcd60e51b815260206004820152602260248201527f45434453413a20696e76616c6964207369676e6174757265202773272076616c604482015261756560f01b60648201526084016104bd565b600080608083901c156118bc57608092831c92015b604083901c156118ce57604092831c92015b602083901c156118e057602092831c92015b601083901c156118f257601092831c92015b600883901c1561190457600892831c92015b600483901c1561191657600492831c92015b600283901c1561192857600292831c92015b600183901c1561051e5760010192915050565b600081831061194a57816104e8565b5090919050565b600060208083528351808285015260005b8181101561197e57858101830151858201604001528201611962565b81811115611990576000604083870101525b50601f01601f1916929092016040019392505050565b80356001600160a01b03811681146119bd57600080fd5b919050565b600080604083850312156119d557600080fd5b6119de836119a6565b946020939093013593505050565b600080600060608486031215611a0157600080fd5b611a0a846119a6565b9250611a18602085016119a6565b9150604084013590509250925092565b600060208284031215611a3a57600080fd5b6104e8826119a6565b600060208284031215611a5557600080fd5b5035919050565b803560ff811681146119bd57600080fd5b60008060008060008060c08789031215611a8657600080fd5b611a8f876119a6565b95506020870135945060408701359350611aab60608801611a5c565b92506080870135915060a087013590509295509295509295565b600080600080600080600060e0888a031215611ae057600080fd5b611ae9886119a6565b9650611af7602089016119a6565b95506040880135945060608801359350611b1360808901611a5c565b925060a0880135915060c0880135905092959891949750929550565b60008060408385031215611b4257600080fd5b611b4b836119a6565b9150611b59602084016119a6565b90509250929050565b60008060408385031215611b7557600080fd5b611b7e836119a6565b9150602083013563ffffffff81168114611b9757600080fd5b809150509250929050565b600181811c90821680611bb657607f821691505b602082108114156112f357634e487b7160e01b600052602260045260246000fd5b634e487b7160e01b600052601160045260246000fd5b60008219821115611c0057611c00611bd7565b500190565b600082821015611c1757611c17611bd7565b500390565b634e487b7160e01b600052603260045260246000fd5b634e487b7160e01b600052601260045260246000fd5b600082611c6557634e487b7160e01b600052601260045260246000fd5b500490565b634e487b7160e01b600052602160045260246000fdfea2646970667358221220d6cb35c4e287d102c4c8cfb9dac4072fa4985f8b2cfa4855b2f0371b1409aa5064736f6c63430008090033dec2bacdd2f05b59de34da9b523dff8be42e5e38e818c82fdb0bae774387a724",
  "linkReferences": {},
  "deployedLinkReferences": {}
}